{
  "address": "0x769b400E8f0CE513f14F94f13a541B138EE97b0e",
  "abi": [
    {
      "inputs": [
        {
          "internalType": "address",
          "name": "factory_",
          "type": "address"
        }
      ],
      "stateMutability": "nonpayable",
      "type": "constructor"
    },
    {
      "inputs": [],
      "name": "factory",
      "outputs": [
        {
          "internalType": "address",
          "name": "",
          "type": "address"
        }
      ],
      "stateMutability": "view",
      "type": "function"
    },
    {
      "inputs": [
        {
          "internalType": "address",
          "name": "tokenA",
          "type": "address"
        },
        {
          "internalType": "address",
          "name": "tokenB",
          "type": "address"
        },
        {
          "internalType": "uint256",
          "name": "truePriceTokenA",
          "type": "uint256"
        },
        {
          "internalType": "uint256",
          "name": "truePriceTokenB",
          "type": "uint256"
        },
        {
          "internalType": "uint256",
          "name": "liquidityAmount",
          "type": "uint256"
        }
      ],
      "name": "getGasCostOfGetLiquidityValueAfterArbitrageToPrice",
      "outputs": [
        {
          "internalType": "uint256",
          "name": "",
          "type": "uint256"
        }
      ],
      "stateMutability": "view",
      "type": "function"
    },
    {
      "inputs": [
        {
          "internalType": "address",
          "name": "tokenA",
          "type": "address"
        },
        {
          "internalType": "address",
          "name": "tokenB",
          "type": "address"
        },
        {
          "internalType": "uint256",
          "name": "liquidityAmount",
          "type": "uint256"
        }
      ],
      "name": "getLiquidityValue",
      "outputs": [
        {
          "internalType": "uint256",
          "name": "tokenAAmount",
          "type": "uint256"
        },
        {
          "internalType": "uint256",
          "name": "tokenBAmount",
          "type": "uint256"
        }
      ],
      "stateMutability": "view",
      "type": "function"
    },
    {
      "inputs": [
        {
          "internalType": "address",
          "name": "tokenA",
          "type": "address"
        },
        {
          "internalType": "address",
          "name": "tokenB",
          "type": "address"
        },
        {
          "internalType": "uint256",
          "name": "truePriceTokenA",
          "type": "uint256"
        },
        {
          "internalType": "uint256",
          "name": "truePriceTokenB",
          "type": "uint256"
        },
        {
          "internalType": "uint256",
          "name": "liquidityAmount",
          "type": "uint256"
        }
      ],
      "name": "getLiquidityValueAfterArbitrageToPrice",
      "outputs": [
        {
          "internalType": "uint256",
          "name": "tokenAAmount",
          "type": "uint256"
        },
        {
          "internalType": "uint256",
          "name": "tokenBAmount",
          "type": "uint256"
        }
      ],
      "stateMutability": "view",
      "type": "function"
    },
    {
      "inputs": [
        {
          "internalType": "address",
          "name": "tokenA",
          "type": "address"
        },
        {
          "internalType": "address",
          "name": "tokenB",
          "type": "address"
        },
        {
          "internalType": "uint256",
          "name": "truePriceTokenA",
          "type": "uint256"
        },
        {
          "internalType": "uint256",
          "name": "truePriceTokenB",
          "type": "uint256"
        }
      ],
      "name": "getReservesAfterArbitrage",
      "outputs": [
        {
          "internalType": "uint256",
          "name": "reserveA",
          "type": "uint256"
        },
        {
          "internalType": "uint256",
          "name": "reserveB",
          "type": "uint256"
        }
      ],
      "stateMutability": "view",
      "type": "function"
    }
  ],
  "transactionHash": "0x8b446126696736389859b4353a55e13276f7c9444cf13a0b754acd99bdea0acd",
  "args": [
    "0xf8f59C5059A2C761eDef4e2C409AB582C0ADbD43"
  ],
  "numDeployments": 1,
  "solcInputHash": "d2a5f87776de7270bc6cd6740f09413e",
  "bytecode": "0x60a060405234801561001057600080fd5b506040516113db3803806113db8339818101604052602081101561003357600080fd5b5051606081901b6001600160601b0319166080526001600160a01b031661136061007b600039806101fa5280610238528061027b52806102b952806102e352506113606000f3fe608060405234801561001057600080fd5b50600436106100675760003560e01c806380caa3531161005057806380caa3531461011d578063c45a01551461017e578063d9b7a6e7146101af57610067565b80633558e94c1461006c57806369a2fcbd146100ce575b600080fd5b6100b56004803603608081101561008257600080fd5b5073ffffffffffffffffffffffffffffffffffffffff8135811691602081013590911690604081013590606001356101f2565b6040805192835260208301919091528051918290030190f35b6100b5600480360360a08110156100e457600080fd5b5073ffffffffffffffffffffffffffffffffffffffff813581169160208101359091169060408101359060608101359060800135610230565b61016c600480360360a081101561013357600080fd5b5073ffffffffffffffffffffffffffffffffffffffff813581169160208101359091169060408101359060608101359060800135610270565b60408051918252519081900360200190f35b6101866102b7565b6040805173ffffffffffffffffffffffffffffffffffffffff9092168252519081900360200190f35b6100b5600480360360608110156101c557600080fd5b5073ffffffffffffffffffffffffffffffffffffffff8135811691602081013590911690604001356102db565b6000806102227f000000000000000000000000000000000000000000000000000000000000000087878787610316565b915091505b94509492505050565b6000806102617f000000000000000000000000000000000000000000000000000000000000000088888888886103f5565b915091505b9550959350505050565b6000805a90506102a47f000000000000000000000000000000000000000000000000000000000000000088888888886103f5565b505060005a909103979650505050505050565b7f000000000000000000000000000000000000000000000000000000000000000081565b60008061030a7f0000000000000000000000000000000000000000000000000000000000000000868686610641565b91509150935093915050565b600080610324878787610824565b909250905081158015906103385750600081115b61038d576040517f08c379a000000000000000000000000000000000000000000000000000000000815260040180806020018281038252602d81526020018061125f602d913960400191505060405180910390fd5b60008061039c8686868661090c565b9150915080600014156103b157506102669050565b81156103d25760006103c48286866109f7565b9482019490930392506103e9565b60006103df8285876109f7565b9094039350918201915b50509550959350505050565b60008060008073ffffffffffffffffffffffffffffffffffffffff168973ffffffffffffffffffffffffffffffffffffffff1663017e7e586040518163ffffffff1660e01b815260040160206040518083038186803b15801561045757600080fd5b505afa15801561046b573d6000803e3d6000fd5b505050506040513d602081101561048157600080fd5b505173ffffffffffffffffffffffffffffffffffffffff161415905060006104aa8a8a8a610b1b565b90506000826104ba57600061052d565b8173ffffffffffffffffffffffffffffffffffffffff16637464fc3d6040518163ffffffff1660e01b815260040160206040518083038186803b15801561050057600080fd5b505afa158015610514573d6000803e3d6000fd5b505050506040513d602081101561052a57600080fd5b50515b905060008273ffffffffffffffffffffffffffffffffffffffff166318160ddd6040518163ffffffff1660e01b815260040160206040518083038186803b15801561057757600080fd5b505afa15801561058b573d6000803e3d6000fd5b505050506040513d60208110156105a157600080fd5b505190508681108015906105b55750600087115b61060a576040517f08c379a00000000000000000000000000000000000000000000000000000000081526004018080602001828103825260278152602001806112d96027913960400191505060405180910390fd5b60008061061a8e8e8e8e8e610316565b9150915061062c8282858c8a89610bdd565b97509750505050505050965096945050505050565b600080600080610652888888610824565b915091506000610663898989610b1b565b905060008073ffffffffffffffffffffffffffffffffffffffff168a73ffffffffffffffffffffffffffffffffffffffff1663017e7e586040518163ffffffff1660e01b815260040160206040518083038186803b1580156106c457600080fd5b505afa1580156106d8573d6000803e3d6000fd5b505050506040513d60208110156106ee57600080fd5b505173ffffffffffffffffffffffffffffffffffffffff161415905060008161071857600061078b565b8273ffffffffffffffffffffffffffffffffffffffff16637464fc3d6040518163ffffffff1660e01b815260040160206040518083038186803b15801561075e57600080fd5b505afa158015610772573d6000803e3d6000fd5b505050506040513d602081101561078857600080fd5b50515b905060008373ffffffffffffffffffffffffffffffffffffffff166318160ddd6040518163ffffffff1660e01b815260040160206040518083038186803b1580156107d557600080fd5b505afa1580156107e9573d6000803e3d6000fd5b505050506040513d60208110156107ff57600080fd5b505190506108118686838c8787610bdd565b9750975050505050505094509492505050565b60008060006108338585610cb6565b509050600080610844888888610b1b565b73ffffffffffffffffffffffffffffffffffffffff16630902f1ac6040518163ffffffff1660e01b815260040160606040518083038186803b15801561088957600080fd5b505afa15801561089d573d6000803e3d6000fd5b505050506040513d60608110156108b357600080fd5b5080516020909101516dffffffffffffffffffffffffffff918216935016905073ffffffffffffffffffffffffffffffffffffffff878116908416146108fa5780826108fd565b81815b90999098509650505050505050565b6000808561091b858786610e09565b1091506000610930858563ffffffff610ede16565b9050600061098261097d61094c846103e863ffffffff610ede16565b866109575789610959565b8a5b6109786103e58961096a578d61096c565b8c5b9063ffffffff610ede16565b610e09565b610f6a565b905060006103e5856109a5576109a0876103e863ffffffff610ede16565b6109b7565b6109b7886103e863ffffffff610ede16565b816109be57fe5b049050808210156109d9575060009350839250610227915050565b6109e9828263ffffffff6110bf16565b935050505094509492505050565b6000808411610a51576040517f08c379a000000000000000000000000000000000000000000000000000000000815260040180806020018281038252602b815260200180611300602b913960400191505060405180910390fd5b600083118015610a615750600082115b610ab6576040517f08c379a00000000000000000000000000000000000000000000000000000000081526004018080602001828103825260288152602001806112b16028913960400191505060405180910390fd5b6000610aca856103e563ffffffff610ede16565b90506000610ade828563ffffffff610ede16565b90506000610b0483610af8886103e863ffffffff610ede16565b9063ffffffff61113116565b9050808281610b0f57fe5b04979650505050505050565b6000806000610b2a8585610cb6565b604080517fe6a4390500000000000000000000000000000000000000000000000000000000815273ffffffffffffffffffffffffffffffffffffffff80851660048301528084166024830152915193955091935088169163e6a4390591604480820192602092909190829003018186803b158015610ba757600080fd5b505afa158015610bbb573d6000803e3d6000fd5b505050506040513d6020811015610bd157600080fd5b50519695505050505050565b600080838015610bed5750600083115b15610c75576000610c0761097d8a8a63ffffffff610ede16565b90506000610c1485610f6a565b905080821115610c7257876000610c31848463ffffffff6110bf16565b90506000610c4a84610af887600563ffffffff610ede16565b90506000610c59848484610e09565b9050610c6b8c8263ffffffff61113116565b9b50505050505b50505b85610c86898763ffffffff610ede16565b81610c8d57fe5b0486610c9f898863ffffffff610ede16565b81610ca657fe5b0491509150965096945050505050565b6000808273ffffffffffffffffffffffffffffffffffffffff168473ffffffffffffffffffffffffffffffffffffffff161415610d3e576040517f08c379a000000000000000000000000000000000000000000000000000000000815260040180806020018281038252602581526020018061128c6025913960400191505060405180910390fd5b8273ffffffffffffffffffffffffffffffffffffffff168473ffffffffffffffffffffffffffffffffffffffff1610610d78578284610d7b565b83835b909250905073ffffffffffffffffffffffffffffffffffffffff8216610e0257604080517f08c379a000000000000000000000000000000000000000000000000000000000815260206004820152601e60248201527f556e697377617056324c6962726172793a205a45524f5f414444524553530000604482015290519081900360640190fd5b9250929050565b6000806000610e1886866111a3565b9150915060008480610e2657fe5b868809905082811115610e3a576001820391505b918290039181610e5857848381610e4d57fe5b049350505050610ed7565b848210610ec657604080517f08c379a000000000000000000000000000000000000000000000000000000000815260206004820152601a60248201527f46756c6c4d6174683a2046554c4c4449565f4f564552464c4f57000000000000604482015290519081900360640190fd5b610ed18383876111ee565b93505050505b9392505050565b6000811580610ef957505080820282828281610ef657fe5b04145b610f6457604080517f08c379a000000000000000000000000000000000000000000000000000000000815260206004820152601460248201527f64732d6d6174682d6d756c2d6f766572666c6f77000000000000000000000000604482015290519081900360640190fd5b92915050565b600081610f79575060006110ba565b8160017001000000000000000000000000000000008210610f9f5760809190911c9060401b5b680100000000000000008210610fba5760409190911c9060201b5b6401000000008210610fd15760209190911c9060101b5b620100008210610fe65760109190911c9060081b5b6101008210610ffa5760089190911c9060041b5b6010821061100d5760049190911c9060021b5b600882106110195760011b5b600181858161102457fe5b048201901c9050600181858161103657fe5b048201901c9050600181858161104857fe5b048201901c9050600181858161105a57fe5b048201901c9050600181858161106c57fe5b048201901c9050600181858161107e57fe5b048201901c9050600181858161109057fe5b048201901c905060008185816110a257fe5b0490508082106110b257806110b4565b815b93505050505b919050565b80820382811115610f6457604080517f08c379a000000000000000000000000000000000000000000000000000000000815260206004820152601560248201527f64732d6d6174682d7375622d756e646572666c6f770000000000000000000000604482015290519081900360640190fd5b80820182811015610f6457604080517f08c379a000000000000000000000000000000000000000000000000000000000815260206004820152601460248201527f64732d6d6174682d6164642d6f766572666c6f77000000000000000000000000604482015290519081900360640190fd5b600080807fffffffffffffffffffffffffffffffffffffffffffffffffffffffffffffffff848609905083850292508281039150828110156111e6576001820391505b509250929050565b600081810382168083816111fe57fe5b04925080858161120a57fe5b04945080816000038161121957fe5b6002858103808702820302808702820302808702820302808702820302808702820302808702820302958602900390940293046001019390930293909301029291505056fe556e697377617056324172626974726167654c6962726172793a205a45524f5f504149525f5245534552564553556e697377617056324c6962726172793a204944454e544943414c5f414444524553534553556e697377617056324c6962726172793a20494e53554646494349454e545f4c4951554944495459436f6d707574654c697175696469747956616c75653a204c49515549444954595f414d4f554e54556e697377617056324c6962726172793a20494e53554646494349454e545f494e5055545f414d4f554e54a2646970667358221220bec6527b02e713e8376095a66df5d0442e3c6ffc861b777f31ed8efaad85829464736f6c63430006060033",
  "devdoc": {
    "methods": {}
  },
  "userdoc": {
    "methods": {}
  },
  "storageLayout": {
    "storage": [],
    "types": null
  }
}